{
  "contractName": "TodoList",
  "abi": [
    {
      "inputs": [],
      "payable": false,
      "stateMutability": "nonpayable",
      "type": "constructor"
    },
    {
      "constant": true,
      "inputs": [
        {
          "internalType": "uint256",
          "name": "",
          "type": "uint256"
        }
      ],
      "name": "tasks",
      "outputs": [
        {
          "internalType": "uint256",
          "name": "id",
          "type": "uint256"
        },
        {
          "internalType": "string",
          "name": "title",
          "type": "string"
        },
        {
          "internalType": "bool",
          "name": "done",
          "type": "bool"
        }
      ],
      "payable": false,
      "stateMutability": "view",
      "type": "function"
    },
    {
      "constant": true,
      "inputs": [],
      "name": "todoCount",
      "outputs": [
        {
          "internalType": "uint256",
          "name": "",
          "type": "uint256"
        }
      ],
      "payable": false,
      "stateMutability": "view",
      "type": "function"
    },
    {
      "constant": false,
      "inputs": [
        {
          "internalType": "string",
          "name": "_title",
          "type": "string"
        }
      ],
      "name": "addTask",
      "outputs": [],
      "payable": false,
      "stateMutability": "nonpayable",
      "type": "function"
    },
    {
      "constant": false,
      "inputs": [
        {
          "internalType": "uint256",
          "name": "_id",
          "type": "uint256"
        }
      ],
      "name": "toggleCompleted",
      "outputs": [],
      "payable": false,
      "stateMutability": "nonpayable",
      "type": "function"
    },
    {
      "constant": false,
      "inputs": [
        {
          "internalType": "uint256",
          "name": "_id",
          "type": "uint256"
        }
      ],
      "name": "removeTask",
      "outputs": [],
      "payable": false,
      "stateMutability": "nonpayable",
      "type": "function"
    },
    {
      "constant": true,
      "inputs": [
        {
          "internalType": "uint256",
          "name": "_id",
          "type": "uint256"
        }
      ],
      "name": "getTask",
      "outputs": [
        {
          "internalType": "uint256",
          "name": "",
          "type": "uint256"
        },
        {
          "internalType": "string",
          "name": "",
          "type": "string"
        },
        {
          "internalType": "bool",
          "name": "",
          "type": "bool"
        }
      ],
      "payable": false,
      "stateMutability": "view",
      "type": "function"
    },
    {
      "constant": false,
      "inputs": [
        {
          "internalType": "uint256",
          "name": "_id",
          "type": "uint256"
        },
        {
          "internalType": "string",
          "name": "_title",
          "type": "string"
        }
      ],
      "name": "updateTask",
      "outputs": [],
      "payable": false,
      "stateMutability": "nonpayable",
      "type": "function"
    }
  ],
  "bytecode": "0x60806040526000805534801561001457600080fd5b506108a6806100246000396000f3fe608060405234801561001057600080fd5b506004361061007d5760003560e01c806386533f6c1161005b57806386533f6c146101ee5780638d9776721461029b578063c3084117146102b8578063fe0dee17146102d55761007d565b80631d65e77e14610082578063455f5024146101295780636723856214610148575b600080fd5b61009f6004803603602081101561009857600080fd5b50356102ef565b604051808481526020018060200183151515158152602001828103825284818151815260200191508051906020019080838360005b838110156100ec5781810151838201526020016100d4565b50505050905090810190601f1680156101195780820380516001836020036101000a031916815260200191505b5094505050505060405180910390f35b6101466004803603602081101561013f57600080fd5b50356103d9565b005b6101466004803603602081101561015e57600080fd5b81019060208101813564010000000081111561017957600080fd5b82018360208201111561018b57600080fd5b803590602001918460018302840111640100000000831117156101ad57600080fd5b91908080601f0160208091040260200160405190810160405280939291908181526020018383808284376000920191909152509295506104fb945050505050565b6101466004803603604081101561020457600080fd5b8135919081019060408101602082013564010000000081111561022657600080fd5b82018360208201111561023857600080fd5b8035906020019184600183028401116401000000008311171561025a57600080fd5b91908080601f016020809104026020016040519081016040528093929190818152602001838380828437600092019190915250929550610567945050505050565b61009f600480360360208110156102b157600080fd5b5035610687565b610146600480360360208110156102ce57600080fd5b5035610736565b6102dd610766565b60408051918252519081900360200190f35b6000606060006102fd61076c565b60008581526001602081815260409283902083516060810185528154815281840180548651600296821615610100026000190190911695909504601f810185900485028601850190965285855290949193858401939092908301828280156103a65780601f1061037b576101008083540402835291602001916103a6565b820191906000526020600020905b81548152906001019060200180831161038957829003601f168201915b50505091835250506002919091015460ff1615156020918201528151908201516040909201519097919650945092505050565b6103e161076c565b60008281526001602081815260409283902083516060810185528154815281840180548651600296821615610100026000190190911695909504601f8101859004850286018501909652858552909491938584019390929083018282801561048a5780601f1061045f5761010080835404028352916020019161048a565b820191906000526020600020905b81548152906001019060200180831161046d57829003601f168201915b50505091835250506002919091015460ff161515602091820152604080830180511590526000858152600180845291902083518155838301518051949550859491936104db9385019291019061078f565b50604091909101516002909101805460ff19169115159190911790555050565b60008054600190810180835560408051606081018252828152602080820187815282840187905293865284815291909420845181559151805192936105489390850192919091019061078f565b50604091909101516002909101805460ff191691151591909117905550565b61056f61076c565b60008381526001602081815260409283902083516060810185528154815281840180548651600296821615610100026000190190911695909504601f810185900485028601850190965285855290949193858401939092908301828280156106185780601f106105ed57610100808354040283529160200191610618565b820191906000526020600020905b8154815290600101906020018083116105fb57829003601f168201915b50505091835250506002919091015460ff161515602091820152818101848152600086815260018084526040909120845181559151805194955085949293610666939285019291019061078f565b50604091909101516002909101805460ff1916911515919091179055505050565b600160208181526000928352604092839020805481840180548651600296821615610100026000190190911695909504601f810185900485028601850190965285855290949193929091908301828280156107235780601f106106f857610100808354040283529160200191610723565b820191906000526020600020905b81548152906001019060200180831161070657829003601f168201915b5050506002909301549192505060ff1683565b6000818152600160208190526040822082815591906107579083018261080d565b50600201805460ff1916905550565b60005481565b604051806060016040528060008152602001606081526020016000151581525090565b828054600181600116156101000203166002900490600052602060002090601f016020900481019282601f106107d057805160ff19168380011785556107fd565b828001600101855582156107fd579182015b828111156107fd5782518255916020019190600101906107e2565b50610809929150610854565b5090565b50805460018160011615610100020316600290046000825580601f106108335750610851565b601f0160209004906000526020600020908101906108519190610854565b50565b61086e91905b80821115610809576000815560010161085a565b9056fea265627a7a72315820361c866b7bcdefe6fb399d025406f4a40f500715f74d6790af892f5c6304373164736f6c63430005100032",
  "source": "// SPDX-License-Identifier: MIT \r\npragma solidity ^0.5.16;\r\n\r\ncontract TodoList {\r\n\r\n    struct Task {\r\n        uint id;\r\n        string title;\r\n        bool done;\r\n    }\r\n\r\n    uint public todoCount = 0;\r\n    mapping(uint => Task) public tasks;\r\n     constructor() public {\r\n        // addTask(\"Create a AI With HTML CSS JS\");\r\n     }\r\n\r\n     function addTask(string memory _title) public {\r\n        todoCount++;\r\n        tasks[todoCount] = Task(todoCount, _title, false);\r\n     }\r\n\r\n     function toggleCompleted(uint _id) public {\r\n        Task memory _task = tasks[_id];\r\n        _task.done = !_task.done;\r\n        tasks[_id] = _task;\r\n     }\r\n\r\n     function removeTask(uint _id) public {\r\n        delete tasks[_id];\r\n     }\r\n\r\n     function getTask(uint _id) public view returns (uint, string memory, bool) {\r\n        Task memory task = tasks[_id];\r\n        return (task.id, task.title, task.done);\r\n     }\r\n\r\n     function updateTask(uint _id, string memory _title) public {\r\n        Task memory _task = tasks[_id];\r\n        _task.title = _title;\r\n        tasks[_id] = _task;\r\n     }\r\n\r\n\r\n}",
  "sourcePath": "C:\\Users\\kmfoysal06\\Documents\\coding projects\\blockchain-todo\\contracts\\TodoList.sol",
  "compiler": {
    "name": "solc",
    "version": "0.5.16+commit.9c3226ce.Emscripten.clang"
  },
  "schemaVersion": "3.4.16",
  "updatedAt": "2025-10-04T10:32:56.398Z",
  "networkType": "ethereum",
  "devdoc": {
    "methods": {}
  },
  "userdoc": {
    "methods": {}
  }
}